{"abi":[{"type":"constructor","inputs":[{"name":"baseURI_","type":"string","internalType":"string"},{"name":"initialOwner","type":"address","internalType":"address"}],"stateMutability":"nonpayable"},{"type":"function","name":"balanceOf","inputs":[{"name":"account","type":"address","internalType":"address"},{"name":"id","type":"uint256","internalType":"uint256"}],"outputs":[{"name":"","type":"uint256","internalType":"uint256"}],"stateMutability":"view"},{"type":"function","name":"balanceOfBatch","inputs":[{"name":"accounts","type":"address[]","internalType":"address[]"},{"name":"ids","type":"uint256[]","internalType":"uint256[]"}],"outputs":[{"name":"","type":"uint256[]","internalType":"uint256[]"}],"stateMutability":"view"},{"type":"function","name":"batchClaim","inputs":[{"name":"ids","type":"uint256[]","internalType":"uint256[]"},{"name":"amounts","type":"uint256[]","internalType":"uint256[]"}],"outputs":[],"stateMutability":"nonpayable"},{"type":"function","name":"claim","inputs":[{"name":"id","type":"uint256","internalType":"uint256"},{"name":"amount","type":"uint256","internalType":"uint256"}],"outputs":[],"stateMutability":"nonpayable"},{"type":"function","name":"hasClaimed","inputs":[{"name":"account","type":"address","internalType":"address"},{"name":"id","type":"uint256","internalType":"uint256"}],"outputs":[{"name":"claimed","type":"bool","internalType":"bool"}],"stateMutability":"view"},{"type":"function","name":"isApprovedForAll","inputs":[{"name":"account","type":"address","internalType":"address"},{"name":"operator","type":"address","internalType":"address"}],"outputs":[{"name":"","type":"bool","internalType":"bool"}],"stateMutability":"view"},{"type":"function","name":"maxSupply","inputs":[{"name":"id","type":"uint256","internalType":"uint256"}],"outputs":[{"name":"","type":"uint256","internalType":"uint256"}],"stateMutability":"view"},{"type":"function","name":"owner","inputs":[],"outputs":[{"name":"","type":"address","internalType":"address"}],"stateMutability":"view"},{"type":"function","name":"renounceOwnership","inputs":[],"outputs":[],"stateMutability":"nonpayable"},{"type":"function","name":"safeBatchTransferFrom","inputs":[{"name":"from","type":"address","internalType":"address"},{"name":"to","type":"address","internalType":"address"},{"name":"ids","type":"uint256[]","internalType":"uint256[]"},{"name":"values","type":"uint256[]","internalType":"uint256[]"},{"name":"data","type":"bytes","internalType":"bytes"}],"outputs":[],"stateMutability":"nonpayable"},{"type":"function","name":"safeTransferFrom","inputs":[{"name":"from","type":"address","internalType":"address"},{"name":"to","type":"address","internalType":"address"},{"name":"id","type":"uint256","internalType":"uint256"},{"name":"value","type":"uint256","internalType":"uint256"},{"name":"data","type":"bytes","internalType":"bytes"}],"outputs":[],"stateMutability":"nonpayable"},{"type":"function","name":"setApprovalForAll","inputs":[{"name":"operator","type":"address","internalType":"address"},{"name":"approved","type":"bool","internalType":"bool"}],"outputs":[],"stateMutability":"nonpayable"},{"type":"function","name":"setBaseURI","inputs":[{"name":"baseURI_","type":"string","internalType":"string"}],"outputs":[],"stateMutability":"nonpayable"},{"type":"function","name":"setMaxSupply","inputs":[{"name":"id","type":"uint256","internalType":"uint256"},{"name":"maxSupply_","type":"uint256","internalType":"uint256"}],"outputs":[],"stateMutability":"nonpayable"},{"type":"function","name":"supportsInterface","inputs":[{"name":"interfaceId","type":"bytes4","internalType":"bytes4"}],"outputs":[{"name":"","type":"bool","internalType":"bool"}],"stateMutability":"view"},{"type":"function","name":"totalSupply","inputs":[{"name":"id","type":"uint256","internalType":"uint256"}],"outputs":[{"name":"supply","type":"uint256","internalType":"uint256"}],"stateMutability":"view"},{"type":"function","name":"transferOwnership","inputs":[{"name":"newOwner","type":"address","internalType":"address"}],"outputs":[],"stateMutability":"nonpayable"},{"type":"function","name":"uri","inputs":[{"name":"id","type":"uint256","internalType":"uint256"}],"outputs":[{"name":"","type":"string","internalType":"string"}],"stateMutability":"view"},{"type":"event","name":"ApprovalForAll","inputs":[{"name":"account","type":"address","indexed":true,"internalType":"address"},{"name":"operator","type":"address","indexed":true,"internalType":"address"},{"name":"approved","type":"bool","indexed":false,"internalType":"bool"}],"anonymous":false},{"type":"event","name":"MaxSupplySet","inputs":[{"name":"id","type":"uint256","indexed":true,"internalType":"uint256"},{"name":"maxSupply","type":"uint256","indexed":false,"internalType":"uint256"}],"anonymous":false},{"type":"event","name":"OwnershipTransferred","inputs":[{"name":"previousOwner","type":"address","indexed":true,"internalType":"address"},{"name":"newOwner","type":"address","indexed":true,"internalType":"address"}],"anonymous":false},{"type":"event","name":"TokenClaimed","inputs":[{"name":"account","type":"address","indexed":true,"internalType":"address"},{"name":"id","type":"uint256","indexed":true,"internalType":"uint256"},{"name":"amount","type":"uint256","indexed":false,"internalType":"uint256"}],"anonymous":false},{"type":"event","name":"TransferBatch","inputs":[{"name":"operator","type":"address","indexed":true,"internalType":"address"},{"name":"from","type":"address","indexed":true,"internalType":"address"},{"name":"to","type":"address","indexed":true,"internalType":"address"},{"name":"ids","type":"uint256[]","indexed":false,"internalType":"uint256[]"},{"name":"values","type":"uint256[]","indexed":false,"internalType":"uint256[]"}],"anonymous":false},{"type":"event","name":"TransferSingle","inputs":[{"name":"operator","type":"address","indexed":true,"internalType":"address"},{"name":"from","type":"address","indexed":true,"internalType":"address"},{"name":"to","type":"address","indexed":true,"internalType":"address"},{"name":"id","type":"uint256","indexed":false,"internalType":"uint256"},{"name":"value","type":"uint256","indexed":false,"internalType":"uint256"}],"anonymous":false},{"type":"event","name":"URI","inputs":[{"name":"value","type":"string","indexed":false,"internalType":"string"},{"name":"id","type":"uint256","indexed":true,"internalType":"uint256"}],"anonymous":false},{"type":"error","name":"ERC1155InsufficientBalance","inputs":[{"name":"sender","type":"address","internalType":"address"},{"name":"balance","type":"uint256","internalType":"uint256"},{"name":"needed","type":"uint256","internalType":"uint256"},{"name":"tokenId","type":"uint256","internalType":"uint256"}]},{"type":"error","name":"ERC1155InvalidApprover","inputs":[{"name":"approver","type":"address","internalType":"address"}]},{"type":"error","name":"ERC1155InvalidArrayLength","inputs":[{"name":"idsLength","type":"uint256","internalType":"uint256"},{"name":"valuesLength","type":"uint256","internalType":"uint256"}]},{"type":"error","name":"ERC1155InvalidOperator","inputs":[{"name":"operator","type":"address","internalType":"address"}]},{"type":"error","name":"ERC1155InvalidReceiver","inputs":[{"name":"receiver","type":"address","internalType":"address"}]},{"type":"error","name":"ERC1155InvalidSender","inputs":[{"name":"sender","type":"address","internalType":"address"}]},{"type":"error","name":"ERC1155MissingApprovalForAll","inputs":[{"name":"operator","type":"address","internalType":"address"},{"name":"owner","type":"address","internalType":"address"}]},{"type":"error","name":"OwnableInvalidOwner","inputs":[{"name":"owner","type":"address","internalType":"address"}]},{"type":"error","name":"OwnableUnauthorizedAccount","inputs":[{"name":"account","type":"address","internalType":"address"}]}],"bytecode":{"object":"0x608060405234801562000010575f80fd5b506040516200209c3803806200209c833981016040819052620000339162000133565b60408051602081019091525f815281906200004e81620000a0565b506001600160a01b0381166200007d57604051631e4fbdf760e01b81525f600482015260240160405180910390fd5b6200008881620000b2565b506004620000978382620002a0565b50505062000368565b6002620000ae8282620002a0565b5050565b600380546001600160a01b038381166001600160a01b0319831681179093556040519116919082907f8be0079c531659141344cd1fd0a4f28419497f9722a3daafe3b4186f6b6457e0905f90a35050565b634e487b7160e01b5f52604160045260245ffd5b80516001600160a01b03811681146200012e575f80fd5b919050565b5f806040838503121562000145575f80fd5b82516001600160401b03808211156200015c575f80fd5b818501915085601f83011262000170575f80fd5b81518181111562000185576200018562000103565b604051601f8201601f19908116603f01168101908382118183101715620001b057620001b062000103565b81604052828152602093508884848701011115620001cc575f80fd5b5f91505b82821015620001ef5784820184015181830185015290830190620001d0565b5f8484830101528096505050506200020981860162000117565b925050509250929050565b600181811c908216806200022957607f821691505b6020821081036200024857634e487b7160e01b5f52602260045260245ffd5b50919050565b601f8211156200029b575f81815260208120601f850160051c81016020861015620002765750805b601f850160051c820191505b81811015620002975782815560010162000282565b5050505b505050565b81516001600160401b03811115620002bc57620002bc62000103565b620002d481620002cd845462000214565b846200024e565b602080601f8311600181146200030a575f8415620002f25750858301515b5f19600386901b1c1916600185901b17855562000297565b5f85815260208120601f198616915b828110156200033a5788860151825594840194600190910190840162000319565b50858210156200035857878501515f19600388901b60f8161c191681555b5050505050600190811b01905550565b611d2680620003765f395ff3fe608060405234801561000f575f80fd5b5060043610610110575f3560e01c8063869f75941161009e578063bd85b0391161006e578063bd85b03914610278578063c349026314610297578063e985e9c5146102aa578063f242432a146102bd578063f2fde38b146102d0575f80fd5b8063869f7594146101f35780638da5cb5b14610212578063a22cb4651461022d578063b293109614610240575f80fd5b80632eb2c2d6116100e45780632eb2c2d61461019257806337da577c146101a55780634e1273f4146101b857806355f804b3146101d8578063715018a6146101eb575f80fd5b8062fdd58e1461011457806301ffc9a71461013a5780630e89341c1461015d578063180783591461017d575b5f80fd5b6101276101223660046113ef565b6102e3565b6040519081526020015b60405180910390f35b61014d61014836600461142c565b61030a565b6040519015158152602001610131565b61017061016b36600461144e565b610359565b60405161013191906114b2565b61019061018b36600461150c565b61038d565b005b6101906101a03660046116b6565b61073a565b6101906101b3366004611759565b6107a1565b6101cb6101c6366004611779565b6107f9565b604051610131919061186c565b6101906101e636600461187e565b6108cc565b6101906108e4565b61012761020136600461144e565b5f9081526007602052604090205490565b6003546040516001600160a01b039091168152602001610131565b61019061023b3660046118cb565b6108f7565b61014d61024e3660046113ef565b6001600160a01b03919091165f908152600560209081526040808320938352929052205460ff1690565b61012761028636600461144e565b5f9081526006602052604090205490565b6101906102a5366004611759565b610902565b61014d6102b8366004611904565b610a9d565b6101906102cb366004611935565b610aca565b6101906102de366004611995565b610b29565b5f818152602081815260408083206001600160a01b03861684529091529020545b92915050565b5f6001600160e01b03198216636cdb3d1360e11b148061033a57506001600160e01b031982166303a24d0760e21b145b8061030457506301ffc9a760e01b6001600160e01b0319831614610304565b6060600461036683610b66565b6040516020016103779291906119e6565b6040516020818303038152906040529050919050565b8281146103da5760405162461bcd60e51b8152602060048201526016602482015275082e4e4c2f2e640d8cadccee8d040dad2e6dac2e8c6d60531b60448201526064015b60405180910390fd5b5f5b838110156106b9575f8383838181106103f7576103f7611a69565b905060200201351161044b5760405162461bcd60e51b815260206004820152601d60248201527f416d6f756e74206d7573742062652067726561746572207468616e203000000060448201526064016103d1565b335f9081526005602052604081209086868481811061046c5761046c611a69565b602090810292909201358352508101919091526040015f205460ff16156104a55760405162461bcd60e51b81526004016103d190611a7d565b5f60075f8787858181106104bb576104bb611a69565b9050602002013581526020019081526020015f205411156105905760075f8686848181106104eb576104eb611a69565b9050602002013581526020019081526020015f205483838381811061051257610512611a69565b9050602002013560065f88888681811061052e5761052e611a69565b9050602002013581526020019081526020015f205461054d9190611ad6565b11156105905760405162461bcd60e51b815260206004820152601260248201527145786365656473206d617820737570706c7960701b60448201526064016103d1565b335f9081526005602052604081206001918787858181106105b3576105b3611a69565b9050602002013581526020019081526020015f205f6101000a81548160ff0219169083151502179055508282828181106105ef576105ef611a69565b9050602002013560065f87878581811061060b5761060b611a69565b9050602002013581526020019081526020015f205f82825461062d9190611ad6565b90915550859050848281811061064557610645611a69565b90506020020135336001600160a01b03167fcb1e26772e882480176a3e649a5f7937dc0ec3f50126283faf56f927b070be8085858581811061068957610689611a69565b9050602002013560405161069f91815260200190565b60405180910390a3806106b181611ae9565b9150506103dc565b50610734338585808060200260200160405190810160405280939291908181526020018383602002808284375f92019190915250506040805160208089028281018201909352888252909350889250879182918501908490808284375f92018290525060408051602081019091529081529250610bf6915050565b50505050565b336001600160a01b038616811480159061075b57506107598682610a9d565b155b1561078c5760405163711bec9160e11b81526001600160a01b038083166004830152871660248201526044016103d1565b6107998686868686610c2c565b505050505050565b6107a9610c91565b5f82815260076020526040908190208290555182907f5af22a09e6677efe5d29d19bf6a17f71d28caad7707022d8eab337320df9f50d906107ed9084815260200190565b60405180910390a25050565b6060815183511461082a5781518351604051635b05999160e01b8152600481019290925260248201526044016103d1565b5f835167ffffffffffffffff81111561084557610845611573565b60405190808252806020026020018201604052801561086e578160200160208202803683370190505b5090505f5b84518110156108c457602080820286010151610897906020808402870101516102e3565b8282815181106108a9576108a9611a69565b60209081029190910101526108bd81611ae9565b9050610873565b509392505050565b6108d4610c91565b60046108e08282611b4b565b5050565b6108ec610c91565b6108f55f610cbe565b565b6108e0338383610d0f565b5f81116109515760405162461bcd60e51b815260206004820152601d60248201527f416d6f756e74206d7573742062652067726561746572207468616e203000000060448201526064016103d1565b335f90815260056020908152604080832085845290915290205460ff161561098b5760405162461bcd60e51b81526004016103d190611a7d565b5f8281526007602052604090205415610a06575f828152600760209081526040808320546006909252909120546109c3908390611ad6565b1115610a065760405162461bcd60e51b815260206004820152601260248201527145786365656473206d617820737570706c7960701b60448201526064016103d1565b335f9081526005602090815260408083208584528252808320805460ff19166001179055600690915281208054839290610a41908490611ad6565b92505081905550610a6233838360405180602001604052805f815250610da3565b604051818152829033907fcb1e26772e882480176a3e649a5f7937dc0ec3f50126283faf56f927b070be809060200160405180910390a35050565b6001600160a01b039182165f90815260016020908152604080832093909416825291909152205460ff1690565b336001600160a01b0386168114801590610aeb5750610ae98682610a9d565b155b15610b1c5760405163711bec9160e11b81526001600160a01b038083166004830152871660248201526044016103d1565b6107998686868686610dfe565b610b31610c91565b6001600160a01b038116610b5a57604051631e4fbdf760e01b81525f60048201526024016103d1565b610b6381610cbe565b50565b60605f610b7283610e8a565b60010190505f8167ffffffffffffffff811115610b9157610b91611573565b6040519080825280601f01601f191660200182016040528015610bbb576020820181803683370190505b5090508181016020015b5f19016f181899199a1a9b1b9c1cb0b131b232b360811b600a86061a8153600a8504945084610bc557509392505050565b6001600160a01b038416610c1f57604051632bfa23e760e11b81525f60048201526024016103d1565b6107345f85858585610f61565b6001600160a01b038416610c5557604051632bfa23e760e11b81525f60048201526024016103d1565b6001600160a01b038516610c7d57604051626a0d4560e21b81525f60048201526024016103d1565b610c8a8585858585610f61565b5050505050565b6003546001600160a01b031633146108f55760405163118cdaa760e01b81523360048201526024016103d1565b600380546001600160a01b038381166001600160a01b0319831681179093556040519116919082907f8be0079c531659141344cd1fd0a4f28419497f9722a3daafe3b4186f6b6457e0905f90a35050565b6001600160a01b038216610d375760405162ced3e160e81b81525f60048201526024016103d1565b6001600160a01b038381165f81815260016020908152604080832094871680845294825291829020805460ff191686151590811790915591519182527f17307eab39ab6107e8899845ad3d59bd9653f200f220920489ca2b5937696c31910160405180910390a3505050565b6001600160a01b038416610dcc57604051632bfa23e760e11b81525f60048201526024016103d1565b604080516001808252602082018690528183019081526060820185905260808201909252906107995f87848487610f61565b6001600160a01b038416610e2757604051632bfa23e760e11b81525f60048201526024016103d1565b6001600160a01b038516610e4f57604051626a0d4560e21b81525f60048201526024016103d1565b60408051600180825260208201869052818301908152606082018590526080820190925290610e818787848487610f61565b50505050505050565b5f8072184f03e93ff9f4daa797ed6e38ed64bf6a1f0160401b8310610ec85772184f03e93ff9f4daa797ed6e38ed64bf6a1f0160401b830492506040015b6d04ee2d6d415b85acef81000000008310610ef4576d04ee2d6d415b85acef8100000000830492506020015b662386f26fc100008310610f1257662386f26fc10000830492506010015b6305f5e1008310610f2a576305f5e100830492506008015b6127108310610f3e57612710830492506004015b60648310610f50576064830492506002015b600a83106103045760010192915050565b610f6d85858585610fb4565b6001600160a01b03841615610c8a5782513390600103610fa65760208481015190840151610f9f8389898585896111cc565b5050610799565b6107998187878787876112ed565b8051825114610fe35781518151604051635b05999160e01b8152600481019290925260248201526044016103d1565b335f5b83518110156110ee576020818102858101820151908501909101516001600160a01b03881615611097575f828152602081815260408083206001600160a01b038c16845290915290205481811015611071576040516303dee4c560e01b81526001600160a01b038a1660048201526024810182905260448101839052606481018490526084016103d1565b5f838152602081815260408083206001600160a01b038d16845290915290209082900390555b6001600160a01b038716156110db575f828152602081815260408083206001600160a01b038b168452909152812080548392906110d5908490611ad6565b90915550505b5050806110e790611ae9565b9050610fe6565b50825160010361116e5760208301515f906020840151909150856001600160a01b0316876001600160a01b0316846001600160a01b03167fc3d58168c5ae7397731d063d5bbf3d657854427343f4c083240f7aacaa2d0f62858560405161115f929190918252602082015260400190565b60405180910390a45050610c8a565b836001600160a01b0316856001600160a01b0316826001600160a01b03167f4a39dc06d4c0dbc64b70af90fd698a233a518aa5d07e595d983b8c0526c8f7fb86866040516111bd929190611c07565b60405180910390a45050505050565b6001600160a01b0384163b156107995760405163f23a6e6160e01b81526001600160a01b0385169063f23a6e61906112109089908990889088908890600401611c34565b6020604051808303815f875af192505050801561124a575060408051601f3d908101601f1916820190925261124791810190611c78565b60015b6112b1573d808015611277576040519150601f19603f3d011682016040523d82523d5f602084013e61127c565b606091505b5080515f036112a957604051632bfa23e760e11b81526001600160a01b03861660048201526024016103d1565b805160208201fd5b6001600160e01b0319811663f23a6e6160e01b14610e8157604051632bfa23e760e11b81526001600160a01b03861660048201526024016103d1565b6001600160a01b0384163b156107995760405163bc197c8160e01b81526001600160a01b0385169063bc197c81906113319089908990889088908890600401611c93565b6020604051808303815f875af192505050801561136b575060408051601f3d908101601f1916820190925261136891810190611c78565b60015b611398573d808015611277576040519150601f19603f3d011682016040523d82523d5f602084013e61127c565b6001600160e01b0319811663bc197c8160e01b14610e8157604051632bfa23e760e11b81526001600160a01b03861660048201526024016103d1565b80356001600160a01b03811681146113ea575f80fd5b919050565b5f8060408385031215611400575f80fd5b611409836113d4565b946020939093013593505050565b6001600160e01b031981168114610b63575f80fd5b5f6020828403121561143c575f80fd5b813561144781611417565b9392505050565b5f6020828403121561145e575f80fd5b5035919050565b5f5b8381101561147f578181015183820152602001611467565b50505f910152565b5f815180845261149e816020860160208601611465565b601f01601f19169290920160200192915050565b602081525f6114476020830184611487565b5f8083601f8401126114d4575f80fd5b50813567ffffffffffffffff8111156114eb575f80fd5b6020830191508360208260051b8501011115611505575f80fd5b9250929050565b5f805f806040858703121561151f575f80fd5b843567ffffffffffffffff80821115611536575f80fd5b611542888389016114c4565b9096509450602087013591508082111561155a575f80fd5b50611567878288016114c4565b95989497509550505050565b634e487b7160e01b5f52604160045260245ffd5b604051601f8201601f1916810167ffffffffffffffff811182821017156115b0576115b0611573565b604052919050565b5f67ffffffffffffffff8211156115d1576115d1611573565b5060051b60200190565b5f82601f8301126115ea575f80fd5b813560206115ff6115fa836115b8565b611587565b82815260059290921b8401810191818101908684111561161d575f80fd5b8286015b848110156116385780358352918301918301611621565b509695505050505050565b5f67ffffffffffffffff83111561165c5761165c611573565b61166f601f8401601f1916602001611587565b9050828152838383011115611682575f80fd5b828260208301375f602084830101529392505050565b5f82601f8301126116a7575f80fd5b61144783833560208501611643565b5f805f805f60a086880312156116ca575f80fd5b6116d3866113d4565b94506116e1602087016113d4565b9350604086013567ffffffffffffffff808211156116fd575f80fd5b61170989838a016115db565b9450606088013591508082111561171e575f80fd5b61172a89838a016115db565b9350608088013591508082111561173f575f80fd5b5061174c88828901611698565b9150509295509295909350565b5f806040838503121561176a575f80fd5b50508035926020909101359150565b5f806040838503121561178a575f80fd5b823567ffffffffffffffff808211156117a1575f80fd5b818501915085601f8301126117b4575f80fd5b813560206117c46115fa836115b8565b82815260059290921b840181019181810190898411156117e2575f80fd5b948201945b83861015611807576117f8866113d4565b825294820194908201906117e7565b9650508601359250508082111561181c575f80fd5b50611829858286016115db565b9150509250929050565b5f8151808452602080850194508084015f5b8381101561186157815187529582019590820190600101611845565b509495945050505050565b602081525f6114476020830184611833565b5f6020828403121561188e575f80fd5b813567ffffffffffffffff8111156118a4575f80fd5b8201601f810184136118b4575f80fd5b6118c384823560208401611643565b949350505050565b5f80604083850312156118dc575f80fd5b6118e5836113d4565b9150602083013580151581146118f9575f80fd5b809150509250929050565b5f8060408385031215611915575f80fd5b61191e836113d4565b915061192c602084016113d4565b90509250929050565b5f805f805f60a08688031215611949575f80fd5b611952866113d4565b9450611960602087016113d4565b93506040860135925060608601359150608086013567ffffffffffffffff811115611989575f80fd5b61174c88828901611698565b5f602082840312156119a5575f80fd5b611447826113d4565b600181811c908216806119c257607f821691505b6020821081036119e057634e487b7160e01b5f52602260045260245ffd5b50919050565b5f8084546119f3816119ae565b60018281168015611a0b5760018114611a2057611a4c565b60ff1984168752821515830287019450611a4c565b885f526020805f205f5b85811015611a435781548a820152908401908201611a2a565b50505082870194505b505050508351611a60818360208801611465565b01949350505050565b634e487b7160e01b5f52603260045260245ffd5b60208082526025908201527f546f6b656e20616c726561647920636c61696d65642062792074686973206164604082015264647265737360d81b606082015260800190565b634e487b7160e01b5f52601160045260245ffd5b8082018082111561030457610304611ac2565b5f60018201611afa57611afa611ac2565b5060010190565b601f821115611b46575f81815260208120601f850160051c81016020861015611b275750805b601f850160051c820191505b8181101561079957828155600101611b33565b505050565b815167ffffffffffffffff811115611b6557611b65611573565b611b7981611b7384546119ae565b84611b01565b602080601f831160018114611bac575f8415611b955750858301515b5f19600386901b1c1916600185901b178555610799565b5f85815260208120601f198616915b82811015611bda57888601518255948401946001909101908401611bbb565b5085821015611bf757878501515f19600388901b60f8161c191681555b5050505050600190811b01905550565b604081525f611c196040830185611833565b8281036020840152611c2b8185611833565b95945050505050565b6001600160a01b03868116825285166020820152604081018490526060810183905260a0608082018190525f90611c6d90830184611487565b979650505050505050565b5f60208284031215611c88575f80fd5b815161144781611417565b6001600160a01b0386811682528516602082015260a0604082018190525f90611cbe90830186611833565b8281036060840152611cd08186611833565b90508281036080840152611ce48185611487565b9897505050505050505056fea264697066735822122089df7de895ade6403ee7f7e52d3c3b5a91cbb4de725b80911b0c57ea03b5812164736f6c63430008140033","linkReferences":{}},"methodIdentifiers":{"balanceOf(address,uint256)":"00fdd58e","balanceOfBatch(address[],uint256[])":"4e1273f4","batchClaim(uint256[],uint256[])":"18078359","claim(uint256,uint256)":"c3490263","hasClaimed(address,uint256)":"b2931096","isApprovedForAll(address,address)":"e985e9c5","maxSupply(uint256)":"869f7594","owner()":"8da5cb5b","renounceOwnership()":"715018a6","safeBatchTransferFrom(address,address,uint256[],uint256[],bytes)":"2eb2c2d6","safeTransferFrom(address,address,uint256,uint256,bytes)":"f242432a","setApprovalForAll(address,bool)":"a22cb465","setBaseURI(string)":"55f804b3","setMaxSupply(uint256,uint256)":"37da577c","supportsInterface(bytes4)":"01ffc9a7","totalSupply(uint256)":"bd85b039","transferOwnership(address)":"f2fde38b","uri(uint256)":"0e89341c"},"id":35}