{"abi":[{"type":"constructor","inputs":[{"name":"baseURI_","type":"string","internalType":"string"},{"name":"initialOwner","type":"address","internalType":"address"}],"stateMutability":"nonpayable"},{"type":"function","name":"balanceOf","inputs":[{"name":"account","type":"address","internalType":"address"},{"name":"id","type":"uint256","internalType":"uint256"}],"outputs":[{"name":"","type":"uint256","internalType":"uint256"}],"stateMutability":"view"},{"type":"function","name":"balanceOfBatch","inputs":[{"name":"accounts","type":"address[]","internalType":"address[]"},{"name":"ids","type":"uint256[]","internalType":"uint256[]"}],"outputs":[{"name":"","type":"uint256[]","internalType":"uint256[]"}],"stateMutability":"view"},{"type":"function","name":"batchClaim","inputs":[{"name":"ids","type":"uint256[]","internalType":"uint256[]"},{"name":"amounts","type":"uint256[]","internalType":"uint256[]"}],"outputs":[],"stateMutability":"nonpayable"},{"type":"function","name":"claim","inputs":[{"name":"id","type":"uint256","internalType":"uint256"},{"name":"amount","type":"uint256","internalType":"uint256"}],"outputs":[],"stateMutability":"nonpayable"},{"type":"function","name":"hasClaimed","inputs":[{"name":"account","type":"address","internalType":"address"},{"name":"id","type":"uint256","internalType":"uint256"}],"outputs":[{"name":"claimed","type":"bool","internalType":"bool"}],"stateMutability":"view"},{"type":"function","name":"isApprovedForAll","inputs":[{"name":"account","type":"address","internalType":"address"},{"name":"operator","type":"address","internalType":"address"}],"outputs":[{"name":"","type":"bool","internalType":"bool"}],"stateMutability":"view"},{"type":"function","name":"maxSupply","inputs":[{"name":"id","type":"uint256","internalType":"uint256"}],"outputs":[{"name":"","type":"uint256","internalType":"uint256"}],"stateMutability":"view"},{"type":"function","name":"owner","inputs":[],"outputs":[{"name":"","type":"address","internalType":"address"}],"stateMutability":"view"},{"type":"function","name":"renounceOwnership","inputs":[],"outputs":[],"stateMutability":"nonpayable"},{"type":"function","name":"safeBatchTransferFrom","inputs":[{"name":"from","type":"address","internalType":"address"},{"name":"to","type":"address","internalType":"address"},{"name":"ids","type":"uint256[]","internalType":"uint256[]"},{"name":"values","type":"uint256[]","internalType":"uint256[]"},{"name":"data","type":"bytes","internalType":"bytes"}],"outputs":[],"stateMutability":"nonpayable"},{"type":"function","name":"safeTransferFrom","inputs":[{"name":"from","type":"address","internalType":"address"},{"name":"to","type":"address","internalType":"address"},{"name":"id","type":"uint256","internalType":"uint256"},{"name":"value","type":"uint256","internalType":"uint256"},{"name":"data","type":"bytes","internalType":"bytes"}],"outputs":[],"stateMutability":"nonpayable"},{"type":"function","name":"setApprovalForAll","inputs":[{"name":"operator","type":"address","internalType":"address"},{"name":"approved","type":"bool","internalType":"bool"}],"outputs":[],"stateMutability":"nonpayable"},{"type":"function","name":"setBaseURI","inputs":[{"name":"baseURI_","type":"string","internalType":"string"}],"outputs":[],"stateMutability":"nonpayable"},{"type":"function","name":"setMaxSupply","inputs":[{"name":"id","type":"uint256","internalType":"uint256"},{"name":"maxSupply_","type":"uint256","internalType":"uint256"}],"outputs":[],"stateMutability":"nonpayable"},{"type":"function","name":"supportsInterface","inputs":[{"name":"interfaceId","type":"bytes4","internalType":"bytes4"}],"outputs":[{"name":"","type":"bool","internalType":"bool"}],"stateMutability":"view"},{"type":"function","name":"totalSupply","inputs":[{"name":"id","type":"uint256","internalType":"uint256"}],"outputs":[{"name":"supply","type":"uint256","internalType":"uint256"}],"stateMutability":"view"},{"type":"function","name":"transferOwnership","inputs":[{"name":"newOwner","type":"address","internalType":"address"}],"outputs":[],"stateMutability":"nonpayable"},{"type":"function","name":"uri","inputs":[{"name":"id","type":"uint256","internalType":"uint256"}],"outputs":[{"name":"","type":"string","internalType":"string"}],"stateMutability":"view"},{"type":"event","name":"ApprovalForAll","inputs":[{"name":"account","type":"address","indexed":true,"internalType":"address"},{"name":"operator","type":"address","indexed":true,"internalType":"address"},{"name":"approved","type":"bool","indexed":false,"internalType":"bool"}],"anonymous":false},{"type":"event","name":"MaxSupplySet","inputs":[{"name":"id","type":"uint256","indexed":true,"internalType":"uint256"},{"name":"maxSupply","type":"uint256","indexed":false,"internalType":"uint256"}],"anonymous":false},{"type":"event","name":"OwnershipTransferred","inputs":[{"name":"previousOwner","type":"address","indexed":true,"internalType":"address"},{"name":"newOwner","type":"address","indexed":true,"internalType":"address"}],"anonymous":false},{"type":"event","name":"TokenClaimed","inputs":[{"name":"account","type":"address","indexed":true,"internalType":"address"},{"name":"id","type":"uint256","indexed":true,"internalType":"uint256"},{"name":"amount","type":"uint256","indexed":false,"internalType":"uint256"}],"anonymous":false},{"type":"event","name":"TransferBatch","inputs":[{"name":"operator","type":"address","indexed":true,"internalType":"address"},{"name":"from","type":"address","indexed":true,"internalType":"address"},{"name":"to","type":"address","indexed":true,"internalType":"address"},{"name":"ids","type":"uint256[]","indexed":false,"internalType":"uint256[]"},{"name":"values","type":"uint256[]","indexed":false,"internalType":"uint256[]"}],"anonymous":false},{"type":"event","name":"TransferSingle","inputs":[{"name":"operator","type":"address","indexed":true,"internalType":"address"},{"name":"from","type":"address","indexed":true,"internalType":"address"},{"name":"to","type":"address","indexed":true,"internalType":"address"},{"name":"id","type":"uint256","indexed":false,"internalType":"uint256"},{"name":"value","type":"uint256","indexed":false,"internalType":"uint256"}],"anonymous":false},{"type":"event","name":"URI","inputs":[{"name":"value","type":"string","indexed":false,"internalType":"string"},{"name":"id","type":"uint256","indexed":true,"internalType":"uint256"}],"anonymous":false},{"type":"error","name":"ERC1155InsufficientBalance","inputs":[{"name":"sender","type":"address","internalType":"address"},{"name":"balance","type":"uint256","internalType":"uint256"},{"name":"needed","type":"uint256","internalType":"uint256"},{"name":"tokenId","type":"uint256","internalType":"uint256"}]},{"type":"error","name":"ERC1155InvalidApprover","inputs":[{"name":"approver","type":"address","internalType":"address"}]},{"type":"error","name":"ERC1155InvalidArrayLength","inputs":[{"name":"idsLength","type":"uint256","internalType":"uint256"},{"name":"valuesLength","type":"uint256","internalType":"uint256"}]},{"type":"error","name":"ERC1155InvalidOperator","inputs":[{"name":"operator","type":"address","internalType":"address"}]},{"type":"error","name":"ERC1155InvalidReceiver","inputs":[{"name":"receiver","type":"address","internalType":"address"}]},{"type":"error","name":"ERC1155InvalidSender","inputs":[{"name":"sender","type":"address","internalType":"address"}]},{"type":"error","name":"ERC1155MissingApprovalForAll","inputs":[{"name":"operator","type":"address","internalType":"address"},{"name":"owner","type":"address","internalType":"address"}]},{"type":"error","name":"OwnableInvalidOwner","inputs":[{"name":"owner","type":"address","internalType":"address"}]},{"type":"error","name":"OwnableUnauthorizedAccount","inputs":[{"name":"account","type":"address","internalType":"address"}]}],"bytecode":{"object":"0x608060405234801562000010575f80fd5b5060405162001ff238038062001ff2833981016040819052620000339162000133565b60408051602081019091525f815281906200004e81620000a0565b506001600160a01b0381166200007d57604051631e4fbdf760e01b81525f600482015260240160405180910390fd5b6200008881620000b2565b506004620000978382620002a0565b50505062000368565b6002620000ae8282620002a0565b5050565b600380546001600160a01b038381166001600160a01b0319831681179093556040519116919082907f8be0079c531659141344cd1fd0a4f28419497f9722a3daafe3b4186f6b6457e0905f90a35050565b634e487b7160e01b5f52604160045260245ffd5b80516001600160a01b03811681146200012e575f80fd5b919050565b5f806040838503121562000145575f80fd5b82516001600160401b03808211156200015c575f80fd5b818501915085601f83011262000170575f80fd5b81518181111562000185576200018562000103565b604051601f8201601f19908116603f01168101908382118183101715620001b057620001b062000103565b81604052828152602093508884848701011115620001cc575f80fd5b5f91505b82821015620001ef5784820184015181830185015290830190620001d0565b5f8484830101528096505050506200020981860162000117565b925050509250929050565b600181811c908216806200022957607f821691505b6020821081036200024857634e487b7160e01b5f52602260045260245ffd5b50919050565b601f8211156200029b575f81815260208120601f850160051c81016020861015620002765750805b601f850160051c820191505b81811015620002975782815560010162000282565b5050505b505050565b81516001600160401b03811115620002bc57620002bc62000103565b620002d481620002cd845462000214565b846200024e565b602080601f8311600181146200030a575f8415620002f25750858301515b5f19600386901b1c1916600185901b17855562000297565b5f85815260208120601f198616915b828110156200033a5788860151825594840194600190910190840162000319565b50858210156200035857878501515f19600388901b60f8161c191681555b5050505050600190811b01905550565b611c7c80620003765f395ff3fe608060405234801561000f575f80fd5b5060043610610110575f3560e01c8063869f75941161009e578063bd85b0391161006e578063bd85b03914610253578063c349026314610272578063e985e9c514610285578063f242432a14610298578063f2fde38b146102ab575f80fd5b8063869f7594146101f35780638da5cb5b14610212578063a22cb4651461022d578063b293109614610240575f80fd5b80632eb2c2d6116100e45780632eb2c2d61461019257806337da577c146101a55780634e1273f4146101b857806355f804b3146101d8578063715018a6146101eb575f80fd5b8062fdd58e1461011457806301ffc9a71461013a5780630e89341c1461015d578063180783591461017d575b5f80fd5b610127610122366004611345565b6102be565b6040519081526020015b60405180910390f35b61014d610148366004611382565b6102e5565b6040519015158152602001610131565b61017061016b3660046113a4565b610334565b6040516101319190611408565b61019061018b366004611462565b610368565b005b6101906101a036600461160c565b6106ad565b6101906101b33660046116af565b610714565b6101cb6101c63660046116cf565b61076c565b60405161013191906117c2565b6101906101e63660046117d4565b61083f565b610190610857565b6101276102013660046113a4565b5f9081526006602052604090205490565b6003546040516001600160a01b039091168152602001610131565b61019061023b366004611821565b61086a565b61014d61024e366004611345565b610875565b6101276102613660046113a4565b5f9081526005602052604090205490565b6101906102803660046116af565b610889565b61014d61029336600461185a565b6109f3565b6101906102a636600461188b565b610a20565b6101906102b93660046118eb565b610a7f565b5f818152602081815260408083206001600160a01b03861684529091529020545b92915050565b5f6001600160e01b03198216636cdb3d1360e11b148061031557506001600160e01b031982166303a24d0760e21b145b806102df57506301ffc9a760e01b6001600160e01b03198316146102df565b6060600461034183610abc565b60405160200161035292919061193c565b6040516020818303038152906040529050919050565b8281146103b55760405162461bcd60e51b8152602060048201526016602482015275082e4e4c2f2e640d8cadccee8d040dad2e6dac2e8c6d60531b60448201526064015b60405180910390fd5b5f5b8381101561062c575f8383838181106103d2576103d26119bf565b90506020020135116104265760405162461bcd60e51b815260206004820152601d60248201527f416d6f756e74206d7573742062652067726561746572207468616e203000000060448201526064016103ac565b6104483386868481811061043c5761043c6119bf565b905060200201356102be565b156104655760405162461bcd60e51b81526004016103ac906119d3565b5f60065f87878581811061047b5761047b6119bf565b9050602002013581526020019081526020015f205411156105505760065f8686848181106104ab576104ab6119bf565b9050602002013581526020019081526020015f20548383838181106104d2576104d26119bf565b9050602002013560055f8888868181106104ee576104ee6119bf565b9050602002013581526020019081526020015f205461050d9190611a2c565b11156105505760405162461bcd60e51b815260206004820152601260248201527145786365656473206d617820737570706c7960701b60448201526064016103ac565b828282818110610562576105626119bf565b9050602002013560055f87878581811061057e5761057e6119bf565b9050602002013581526020019081526020015f205f8282546105a09190611a2c565b9091555085905084828181106105b8576105b86119bf565b90506020020135336001600160a01b03167fcb1e26772e882480176a3e649a5f7937dc0ec3f50126283faf56f927b070be808585858181106105fc576105fc6119bf565b9050602002013560405161061291815260200190565b60405180910390a38061062481611a3f565b9150506103b7565b506106a7338585808060200260200160405190810160405280939291908181526020018383602002808284375f92019190915250506040805160208089028281018201909352888252909350889250879182918501908490808284375f92018290525060408051602081019091529081529250610b4c915050565b50505050565b336001600160a01b03861681148015906106ce57506106cc86826109f3565b155b156106ff5760405163711bec9160e11b81526001600160a01b038083166004830152871660248201526044016103ac565b61070c8686868686610b82565b505050505050565b61071c610be7565b5f82815260066020526040908190208290555182907f5af22a09e6677efe5d29d19bf6a17f71d28caad7707022d8eab337320df9f50d906107609084815260200190565b60405180910390a25050565b6060815183511461079d5781518351604051635b05999160e01b8152600481019290925260248201526044016103ac565b5f835167ffffffffffffffff8111156107b8576107b86114c9565b6040519080825280602002602001820160405280156107e1578160200160208202803683370190505b5090505f5b84518110156108375760208082028601015161080a906020808402870101516102be565b82828151811061081c5761081c6119bf565b602090810291909101015261083081611a3f565b90506107e6565b509392505050565b610847610be7565b60046108538282611aa1565b5050565b61085f610be7565b6108685f610c14565b565b610853338383610c65565b5f8061088184846102be565b119392505050565b5f81116108d85760405162461bcd60e51b815260206004820152601d60248201527f416d6f756e74206d7573742062652067726561746572207468616e203000000060448201526064016103ac565b6108e233836102be565b156108ff5760405162461bcd60e51b81526004016103ac906119d3565b5f828152600660205260409020541561097a575f82815260066020908152604080832054600590925290912054610937908390611a2c565b111561097a5760405162461bcd60e51b815260206004820152601260248201527145786365656473206d617820737570706c7960701b60448201526064016103ac565b5f8281526005602052604081208054839290610997908490611a2c565b925050819055506109b833838360405180602001604052805f815250610cf9565b604051818152829033907fcb1e26772e882480176a3e649a5f7937dc0ec3f50126283faf56f927b070be809060200160405180910390a35050565b6001600160a01b039182165f90815260016020908152604080832093909416825291909152205460ff1690565b336001600160a01b0386168114801590610a415750610a3f86826109f3565b155b15610a725760405163711bec9160e11b81526001600160a01b038083166004830152871660248201526044016103ac565b61070c8686868686610d54565b610a87610be7565b6001600160a01b038116610ab057604051631e4fbdf760e01b81525f60048201526024016103ac565b610ab981610c14565b50565b60605f610ac883610de0565b60010190505f8167ffffffffffffffff811115610ae757610ae76114c9565b6040519080825280601f01601f191660200182016040528015610b11576020820181803683370190505b5090508181016020015b5f19016f181899199a1a9b1b9c1cb0b131b232b360811b600a86061a8153600a8504945084610b1b57509392505050565b6001600160a01b038416610b7557604051632bfa23e760e11b81525f60048201526024016103ac565b6106a75f85858585610eb7565b6001600160a01b038416610bab57604051632bfa23e760e11b81525f60048201526024016103ac565b6001600160a01b038516610bd357604051626a0d4560e21b81525f60048201526024016103ac565b610be08585858585610eb7565b5050505050565b6003546001600160a01b031633146108685760405163118cdaa760e01b81523360048201526024016103ac565b600380546001600160a01b038381166001600160a01b0319831681179093556040519116919082907f8be0079c531659141344cd1fd0a4f28419497f9722a3daafe3b4186f6b6457e0905f90a35050565b6001600160a01b038216610c8d5760405162ced3e160e81b81525f60048201526024016103ac565b6001600160a01b038381165f81815260016020908152604080832094871680845294825291829020805460ff191686151590811790915591519182527f17307eab39ab6107e8899845ad3d59bd9653f200f220920489ca2b5937696c31910160405180910390a3505050565b6001600160a01b038416610d2257604051632bfa23e760e11b81525f60048201526024016103ac565b6040805160018082526020820186905281830190815260608201859052608082019092529061070c5f87848487610eb7565b6001600160a01b038416610d7d57604051632bfa23e760e11b81525f60048201526024016103ac565b6001600160a01b038516610da557604051626a0d4560e21b81525f60048201526024016103ac565b60408051600180825260208201869052818301908152606082018590526080820190925290610dd78787848487610eb7565b50505050505050565b5f8072184f03e93ff9f4daa797ed6e38ed64bf6a1f0160401b8310610e1e5772184f03e93ff9f4daa797ed6e38ed64bf6a1f0160401b830492506040015b6d04ee2d6d415b85acef81000000008310610e4a576d04ee2d6d415b85acef8100000000830492506020015b662386f26fc100008310610e6857662386f26fc10000830492506010015b6305f5e1008310610e80576305f5e100830492506008015b6127108310610e9457612710830492506004015b60648310610ea6576064830492506002015b600a83106102df5760010192915050565b610ec385858585610f0a565b6001600160a01b03841615610be05782513390600103610efc5760208481015190840151610ef5838989858589611122565b505061070c565b61070c818787878787611243565b8051825114610f395781518151604051635b05999160e01b8152600481019290925260248201526044016103ac565b335f5b8351811015611044576020818102858101820151908501909101516001600160a01b03881615610fed575f828152602081815260408083206001600160a01b038c16845290915290205481811015610fc7576040516303dee4c560e01b81526001600160a01b038a1660048201526024810182905260448101839052606481018490526084016103ac565b5f838152602081815260408083206001600160a01b038d16845290915290209082900390555b6001600160a01b03871615611031575f828152602081815260408083206001600160a01b038b1684529091528120805483929061102b908490611a2c565b90915550505b50508061103d90611a3f565b9050610f3c565b5082516001036110c45760208301515f906020840151909150856001600160a01b0316876001600160a01b0316846001600160a01b03167fc3d58168c5ae7397731d063d5bbf3d657854427343f4c083240f7aacaa2d0f6285856040516110b5929190918252602082015260400190565b60405180910390a45050610be0565b836001600160a01b0316856001600160a01b0316826001600160a01b03167f4a39dc06d4c0dbc64b70af90fd698a233a518aa5d07e595d983b8c0526c8f7fb8686604051611113929190611b5d565b60405180910390a45050505050565b6001600160a01b0384163b1561070c5760405163f23a6e6160e01b81526001600160a01b0385169063f23a6e61906111669089908990889088908890600401611b8a565b6020604051808303815f875af19250505080156111a0575060408051601f3d908101601f1916820190925261119d91810190611bce565b60015b611207573d8080156111cd576040519150601f19603f3d011682016040523d82523d5f602084013e6111d2565b606091505b5080515f036111ff57604051632bfa23e760e11b81526001600160a01b03861660048201526024016103ac565b805160208201fd5b6001600160e01b0319811663f23a6e6160e01b14610dd757604051632bfa23e760e11b81526001600160a01b03861660048201526024016103ac565b6001600160a01b0384163b1561070c5760405163bc197c8160e01b81526001600160a01b0385169063bc197c81906112879089908990889088908890600401611be9565b6020604051808303815f875af19250505080156112c1575060408051601f3d908101601f191682019092526112be91810190611bce565b60015b6112ee573d8080156111cd576040519150601f19603f3d011682016040523d82523d5f602084013e6111d2565b6001600160e01b0319811663bc197c8160e01b14610dd757604051632bfa23e760e11b81526001600160a01b03861660048201526024016103ac565b80356001600160a01b0381168114611340575f80fd5b919050565b5f8060408385031215611356575f80fd5b61135f8361132a565b946020939093013593505050565b6001600160e01b031981168114610ab9575f80fd5b5f60208284031215611392575f80fd5b813561139d8161136d565b9392505050565b5f602082840312156113b4575f80fd5b5035919050565b5f5b838110156113d55781810151838201526020016113bd565b50505f910152565b5f81518084526113f48160208601602086016113bb565b601f01601f19169290920160200192915050565b602081525f61139d60208301846113dd565b5f8083601f84011261142a575f80fd5b50813567ffffffffffffffff811115611441575f80fd5b6020830191508360208260051b850101111561145b575f80fd5b9250929050565b5f805f8060408587031215611475575f80fd5b843567ffffffffffffffff8082111561148c575f80fd5b6114988883890161141a565b909650945060208701359150808211156114b0575f80fd5b506114bd8782880161141a565b95989497509550505050565b634e487b7160e01b5f52604160045260245ffd5b604051601f8201601f1916810167ffffffffffffffff81118282101715611506576115066114c9565b604052919050565b5f67ffffffffffffffff821115611527576115276114c9565b5060051b60200190565b5f82601f830112611540575f80fd5b813560206115556115508361150e565b6114dd565b82815260059290921b84018101918181019086841115611573575f80fd5b8286015b8481101561158e5780358352918301918301611577565b509695505050505050565b5f67ffffffffffffffff8311156115b2576115b26114c9565b6115c5601f8401601f19166020016114dd565b90508281528383830111156115d8575f80fd5b828260208301375f602084830101529392505050565b5f82601f8301126115fd575f80fd5b61139d83833560208501611599565b5f805f805f60a08688031215611620575f80fd5b6116298661132a565b94506116376020870161132a565b9350604086013567ffffffffffffffff80821115611653575f80fd5b61165f89838a01611531565b94506060880135915080821115611674575f80fd5b61168089838a01611531565b93506080880135915080821115611695575f80fd5b506116a2888289016115ee565b9150509295509295909350565b5f80604083850312156116c0575f80fd5b50508035926020909101359150565b5f80604083850312156116e0575f80fd5b823567ffffffffffffffff808211156116f7575f80fd5b818501915085601f83011261170a575f80fd5b8135602061171a6115508361150e565b82815260059290921b84018101918181019089841115611738575f80fd5b948201945b8386101561175d5761174e8661132a565b8252948201949082019061173d565b96505086013592505080821115611772575f80fd5b5061177f85828601611531565b9150509250929050565b5f8151808452602080850194508084015f5b838110156117b75781518752958201959082019060010161179b565b509495945050505050565b602081525f61139d6020830184611789565b5f602082840312156117e4575f80fd5b813567ffffffffffffffff8111156117fa575f80fd5b8201601f8101841361180a575f80fd5b61181984823560208401611599565b949350505050565b5f8060408385031215611832575f80fd5b61183b8361132a565b91506020830135801515811461184f575f80fd5b809150509250929050565b5f806040838503121561186b575f80fd5b6118748361132a565b91506118826020840161132a565b90509250929050565b5f805f805f60a0868803121561189f575f80fd5b6118a88661132a565b94506118b66020870161132a565b93506040860135925060608601359150608086013567ffffffffffffffff8111156118df575f80fd5b6116a2888289016115ee565b5f602082840312156118fb575f80fd5b61139d8261132a565b600181811c9082168061191857607f821691505b60208210810361193657634e487b7160e01b5f52602260045260245ffd5b50919050565b5f80845461194981611904565b600182811680156119615760018114611976576119a2565b60ff19841687528215158302870194506119a2565b885f526020805f205f5b858110156119995781548a820152908401908201611980565b50505082870194505b5050505083516119b68183602088016113bb565b01949350505050565b634e487b7160e01b5f52603260045260245ffd5b60208082526025908201527f546f6b656e20616c726561647920636c61696d65642062792074686973206164604082015264647265737360d81b606082015260800190565b634e487b7160e01b5f52601160045260245ffd5b808201808211156102df576102df611a18565b5f60018201611a5057611a50611a18565b5060010190565b601f821115611a9c575f81815260208120601f850160051c81016020861015611a7d5750805b601f850160051c820191505b8181101561070c57828155600101611a89565b505050565b815167ffffffffffffffff811115611abb57611abb6114c9565b611acf81611ac98454611904565b84611a57565b602080601f831160018114611b02575f8415611aeb5750858301515b5f19600386901b1c1916600185901b17855561070c565b5f85815260208120601f198616915b82811015611b3057888601518255948401946001909101908401611b11565b5085821015611b4d57878501515f19600388901b60f8161c191681555b5050505050600190811b01905550565b604081525f611b6f6040830185611789565b8281036020840152611b818185611789565b95945050505050565b6001600160a01b03868116825285166020820152604081018490526060810183905260a0608082018190525f90611bc3908301846113dd565b979650505050505050565b5f60208284031215611bde575f80fd5b815161139d8161136d565b6001600160a01b0386811682528516602082015260a0604082018190525f90611c1490830186611789565b8281036060840152611c268186611789565b90508281036080840152611c3a81856113dd565b9897505050505050505056fea2646970667358221220d180750e42737f1be5493be7191c646a9656ebb97ca020494992110959bf14f064736f6c63430008140033","linkReferences":{}},"methodIdentifiers":{"balanceOf(address,uint256)":"00fdd58e","balanceOfBatch(address[],uint256[])":"4e1273f4","batchClaim(uint256[],uint256[])":"18078359","claim(uint256,uint256)":"c3490263","hasClaimed(address,uint256)":"b2931096","isApprovedForAll(address,address)":"e985e9c5","maxSupply(uint256)":"869f7594","owner()":"8da5cb5b","renounceOwnership()":"715018a6","safeBatchTransferFrom(address,address,uint256[],uint256[],bytes)":"2eb2c2d6","safeTransferFrom(address,address,uint256,uint256,bytes)":"f242432a","setApprovalForAll(address,bool)":"a22cb465","setBaseURI(string)":"55f804b3","setMaxSupply(uint256,uint256)":"37da577c","supportsInterface(bytes4)":"01ffc9a7","totalSupply(uint256)":"bd85b039","transferOwnership(address)":"f2fde38b","uri(uint256)":"0e89341c"},"id":40}